{
  "contractName": "NordiaForFuture",
  "abi": [
    {
      "inputs": [],
      "stateMutability": "nonpayable",
      "type": "constructor"
    },
    {
      "inputs": [],
      "name": "ApprovalCallerNotOwnerNorApproved",
      "type": "error"
    },
    {
      "inputs": [],
      "name": "ApprovalQueryForNonexistentToken",
      "type": "error"
    },
    {
      "inputs": [],
      "name": "ApproveToCaller",
      "type": "error"
    },
    {
      "inputs": [],
      "name": "BalanceQueryForZeroAddress",
      "type": "error"
    },
    {
      "inputs": [],
      "name": "MintERC2309QuantityExceedsLimit",
      "type": "error"
    },
    {
      "inputs": [],
      "name": "MintToZeroAddress",
      "type": "error"
    },
    {
      "inputs": [],
      "name": "MintZeroQuantity",
      "type": "error"
    },
    {
      "inputs": [],
      "name": "OwnerQueryForNonexistentToken",
      "type": "error"
    },
    {
      "inputs": [],
      "name": "OwnershipNotInitializedForExtraData",
      "type": "error"
    },
    {
      "inputs": [],
      "name": "TransferCallerNotOwnerNorApproved",
      "type": "error"
    },
    {
      "inputs": [],
      "name": "TransferFromIncorrectOwner",
      "type": "error"
    },
    {
      "inputs": [],
      "name": "TransferToNonERC721ReceiverImplementer",
      "type": "error"
    },
    {
      "inputs": [],
      "name": "TransferToZeroAddress",
      "type": "error"
    },
    {
      "inputs": [],
      "name": "URIQueryForNonexistentToken",
      "type": "error"
    },
    {
      "anonymous": false,
      "inputs": [
        {
          "indexed": true,
          "internalType": "address",
          "name": "owner",
          "type": "address"
        },
        {
          "indexed": true,
          "internalType": "address",
          "name": "approved",
          "type": "address"
        },
        {
          "indexed": true,
          "internalType": "uint256",
          "name": "tokenId",
          "type": "uint256"
        }
      ],
      "name": "Approval",
      "type": "event"
    },
    {
      "anonymous": false,
      "inputs": [
        {
          "indexed": true,
          "internalType": "address",
          "name": "owner",
          "type": "address"
        },
        {
          "indexed": true,
          "internalType": "address",
          "name": "operator",
          "type": "address"
        },
        {
          "indexed": false,
          "internalType": "bool",
          "name": "approved",
          "type": "bool"
        }
      ],
      "name": "ApprovalForAll",
      "type": "event"
    },
    {
      "anonymous": false,
      "inputs": [
        {
          "indexed": true,
          "internalType": "uint256",
          "name": "fromTokenId",
          "type": "uint256"
        },
        {
          "indexed": false,
          "internalType": "uint256",
          "name": "toTokenId",
          "type": "uint256"
        },
        {
          "indexed": true,
          "internalType": "address",
          "name": "from",
          "type": "address"
        },
        {
          "indexed": true,
          "internalType": "address",
          "name": "to",
          "type": "address"
        }
      ],
      "name": "ConsecutiveTransfer",
      "type": "event"
    },
    {
      "anonymous": false,
      "inputs": [
        {
          "indexed": true,
          "internalType": "address",
          "name": "from",
          "type": "address"
        },
        {
          "indexed": true,
          "internalType": "address",
          "name": "to",
          "type": "address"
        },
        {
          "indexed": true,
          "internalType": "uint256",
          "name": "tokenId",
          "type": "uint256"
        }
      ],
      "name": "Transfer",
      "type": "event"
    },
    {
      "inputs": [
        {
          "internalType": "address",
          "name": "to",
          "type": "address"
        },
        {
          "internalType": "uint256",
          "name": "tokenId",
          "type": "uint256"
        }
      ],
      "name": "approve",
      "outputs": [],
      "stateMutability": "nonpayable",
      "type": "function"
    },
    {
      "inputs": [
        {
          "internalType": "address",
          "name": "owner",
          "type": "address"
        }
      ],
      "name": "balanceOf",
      "outputs": [
        {
          "internalType": "uint256",
          "name": "",
          "type": "uint256"
        }
      ],
      "stateMutability": "view",
      "type": "function",
      "constant": true
    },
    {
      "inputs": [],
      "name": "baseURI",
      "outputs": [
        {
          "internalType": "string",
          "name": "",
          "type": "string"
        }
      ],
      "stateMutability": "view",
      "type": "function",
      "constant": true
    },
    {
      "inputs": [
        {
          "internalType": "uint256",
          "name": "tokenId",
          "type": "uint256"
        }
      ],
      "name": "getApproved",
      "outputs": [
        {
          "internalType": "address",
          "name": "",
          "type": "address"
        }
      ],
      "stateMutability": "view",
      "type": "function",
      "constant": true
    },
    {
      "inputs": [
        {
          "internalType": "address",
          "name": "owner",
          "type": "address"
        },
        {
          "internalType": "address",
          "name": "operator",
          "type": "address"
        }
      ],
      "name": "isApprovedForAll",
      "outputs": [
        {
          "internalType": "bool",
          "name": "",
          "type": "bool"
        }
      ],
      "stateMutability": "view",
      "type": "function",
      "constant": true
    },
    {
      "inputs": [],
      "name": "name",
      "outputs": [
        {
          "internalType": "string",
          "name": "",
          "type": "string"
        }
      ],
      "stateMutability": "view",
      "type": "function",
      "constant": true
    },
    {
      "inputs": [
        {
          "internalType": "uint256",
          "name": "tokenId",
          "type": "uint256"
        }
      ],
      "name": "ownerOf",
      "outputs": [
        {
          "internalType": "address",
          "name": "",
          "type": "address"
        }
      ],
      "stateMutability": "view",
      "type": "function",
      "constant": true
    },
    {
      "inputs": [
        {
          "internalType": "address",
          "name": "from",
          "type": "address"
        },
        {
          "internalType": "address",
          "name": "to",
          "type": "address"
        },
        {
          "internalType": "uint256",
          "name": "tokenId",
          "type": "uint256"
        }
      ],
      "name": "safeTransferFrom",
      "outputs": [],
      "stateMutability": "nonpayable",
      "type": "function"
    },
    {
      "inputs": [
        {
          "internalType": "address",
          "name": "from",
          "type": "address"
        },
        {
          "internalType": "address",
          "name": "to",
          "type": "address"
        },
        {
          "internalType": "uint256",
          "name": "tokenId",
          "type": "uint256"
        },
        {
          "internalType": "bytes",
          "name": "_data",
          "type": "bytes"
        }
      ],
      "name": "safeTransferFrom",
      "outputs": [],
      "stateMutability": "nonpayable",
      "type": "function"
    },
    {
      "inputs": [
        {
          "internalType": "address",
          "name": "operator",
          "type": "address"
        },
        {
          "internalType": "bool",
          "name": "approved",
          "type": "bool"
        }
      ],
      "name": "setApprovalForAll",
      "outputs": [],
      "stateMutability": "nonpayable",
      "type": "function"
    },
    {
      "inputs": [
        {
          "internalType": "bytes4",
          "name": "interfaceId",
          "type": "bytes4"
        }
      ],
      "name": "supportsInterface",
      "outputs": [
        {
          "internalType": "bool",
          "name": "",
          "type": "bool"
        }
      ],
      "stateMutability": "view",
      "type": "function",
      "constant": true
    },
    {
      "inputs": [],
      "name": "symbol",
      "outputs": [
        {
          "internalType": "string",
          "name": "",
          "type": "string"
        }
      ],
      "stateMutability": "view",
      "type": "function",
      "constant": true
    },
    {
      "inputs": [],
      "name": "totalSupply",
      "outputs": [
        {
          "internalType": "uint256",
          "name": "",
          "type": "uint256"
        }
      ],
      "stateMutability": "view",
      "type": "function",
      "constant": true
    },
    {
      "inputs": [
        {
          "internalType": "address",
          "name": "from",
          "type": "address"
        },
        {
          "internalType": "address",
          "name": "to",
          "type": "address"
        },
        {
          "internalType": "uint256",
          "name": "tokenId",
          "type": "uint256"
        }
      ],
      "name": "transferFrom",
      "outputs": [],
      "stateMutability": "nonpayable",
      "type": "function"
    },
    {
      "inputs": [
        {
          "internalType": "address",
          "name": "account",
          "type": "address"
        }
      ],
      "name": "setRole",
      "outputs": [],
      "stateMutability": "nonpayable",
      "type": "function"
    },
    {
      "inputs": [
        {
          "internalType": "address",
          "name": "account",
          "type": "address"
        }
      ],
      "name": "removeRole",
      "outputs": [],
      "stateMutability": "nonpayable",
      "type": "function"
    },
    {
      "inputs": [
        {
          "internalType": "address",
          "name": "account",
          "type": "address"
        },
        {
          "internalType": "uint256",
          "name": "quantity",
          "type": "uint256"
        }
      ],
      "name": "mint",
      "outputs": [],
      "stateMutability": "nonpayable",
      "type": "function"
    },
    {
      "inputs": [
        {
          "internalType": "uint256",
          "name": "tokenId",
          "type": "uint256"
        }
      ],
      "name": "tokenURI",
      "outputs": [
        {
          "internalType": "string",
          "name": "",
          "type": "string"
        }
      ],
      "stateMutability": "view",
      "type": "function",
      "constant": true
    },
    {
      "inputs": [
        {
          "internalType": "string",
          "name": "uri",
          "type": "string"
        }
      ],
      "name": "setBaseURI",
      "outputs": [],
      "stateMutability": "nonpayable",
      "type": "function"
    }
  ],
  "bytecode": "0x60806040523480156200001157600080fd5b50604080518082018252600f81526e4e6f72646961466f7246757475726560881b60208083019182528351808501909452600384526227232360e91b9084015281519192916200006491600291620000a0565b5080516200007a906003906020840190620000a0565b506000808155338152600960205260409020805460ff1916600117905550620001839050565b828054620000ae9062000146565b90600052602060002090601f016020900481019282620000d257600085556200011d565b82601f10620000ed57805160ff19168380011785556200011d565b828001600101855582156200011d579182015b828111156200011d57825182559160200191906001019062000100565b506200012b9291506200012f565b5090565b5b808211156200012b576000815560010162000130565b600181811c908216806200015b57607f821691505b602082108114156200017d57634e487b7160e01b600052602260045260246000fd5b50919050565b61135180620001936000396000f3fe608060405234801561001057600080fd5b50600436106101215760003560e01c806355f804b3116100ad57806395d89b411161007157806395d89b4114610259578063a22cb46514610261578063b88d4fde14610274578063c87b56dd14610287578063e985e9c51461029a57600080fd5b806355f804b3146102055780635d0efc4d146102185780636352211e1461022b5780636c0360eb1461023e57806370a082311461024657600080fd5b806318160ddd116100f457806318160ddd146101a357806323b872dd146101b957806340c10f19146101cc57806342842e0e146101df5780634762155d146101f257600080fd5b806301ffc9a71461012657806306fdde031461014e578063081812fc14610163578063095ea7b31461018e575b600080fd5b610139610134366004610fd3565b6102d6565b60405190151581526020015b60405180910390f35b610156610328565b604051610145919061119b565b610176610171366004611056565b6103ba565b6040516001600160a01b039091168152602001610145565b6101a161019c366004610fa9565b6103fe565b005b600154600054035b604051908152602001610145565b6101a16101c7366004610eb5565b61049e565b6101a16101da366004610fa9565b61062f565b6101a16101ed366004610eb5565b610675565b6101a1610200366004610e67565b610695565b6101a161021336600461100d565b6106e5565b6101a1610226366004610e67565b610727565b610176610239366004611056565b61077a565b610156610785565b6101ab610254366004610e67565b610813565b610156610862565b6101a161026f366004610f6d565b610871565b6101a1610282366004610ef1565b610907565b610156610295366004611056565b610951565b6101396102a8366004610e82565b6001600160a01b03918216600090815260076020908152604080832093909416825291909152205460ff1690565b60006301ffc9a760e01b6001600160e01b03198316148061030757506380ac58cd60e01b6001600160e01b03198316145b806103225750635b5e139f60e01b6001600160e01b03198316145b92915050565b60606002805461033790611240565b80601f016020809104026020016040519081016040528092919081815260200182805461036390611240565b80156103b05780601f10610385576101008083540402835291602001916103b0565b820191906000526020600020905b81548152906001019060200180831161039357829003601f168201915b5050505050905090565b60006103c5826109da565b6103e2576040516333d1c03960e21b815260040160405180910390fd5b506000908152600660205260409020546001600160a01b031690565b60006104098261077a565b9050336001600160a01b038216146104425761042581336102a8565b610442576040516367d9dca160e11b815260040160405180910390fd5b60008281526006602052604080822080546001600160a01b0319166001600160a01b0387811691821790925591518593918516917f8c5be1e5ebec7d5bd14f71427d1e84f3dd0314c0f7b2291e5b200ac8c7c3b92591a4505050565b60006104a982610a01565b9050836001600160a01b0316816001600160a01b0316146104dc5760405162a1148160e81b815260040160405180910390fd5b60008281526006602052604090208054338082146001600160a01b038816909114176105295761050c86336102a8565b61052957604051632ce44b5f60e11b815260040160405180910390fd5b6001600160a01b03851661055057604051633a954ecd60e21b815260040160405180910390fd5b801561055b57600082555b6001600160a01b038681166000908152600560205260408082208054600019019055918716808252919020805460010190554260a01b17600160e11b17600085815260046020526040902055600160e11b83166105e657600184016000818152600460205260409020546105e45760005481146105e45760008181526004602052604090208490555b505b83856001600160a01b0316876001600160a01b03167fddf252ad1be2c89b69c2b068fc378daa952ba7f163c4a11628f55a4df523b3ef60405160405180910390a4505050505050565b3360009081526009602052604090205460ff166106675760405162461bcd60e51b815260040161065e906111ae565b60405180910390fd5b6106718282610a69565b5050565b61069083838360405180602001604052806000815250610907565b505050565b3360009081526009602052604090205460ff166106c45760405162461bcd60e51b815260040161065e906111ae565b6001600160a01b03166000908152600960205260409020805460ff19169055565b3360009081526009602052604090205460ff166107145760405162461bcd60e51b815260040161065e906111ae565b8051610671906008906020840190610d3c565b3360009081526009602052604090205460ff166107565760405162461bcd60e51b815260040161065e906111ae565b6001600160a01b03166000908152600960205260409020805460ff19166001179055565b600061032282610a01565b6008805461079290611240565b80601f01602080910402602001604051908101604052809291908181526020018280546107be90611240565b801561080b5780601f106107e05761010080835404028352916020019161080b565b820191906000526020600020905b8154815290600101906020018083116107ee57829003601f168201915b505050505081565b60006001600160a01b03821661083c576040516323d3ad8160e21b815260040160405180910390fd5b506001600160a01b031660009081526005602052604090205467ffffffffffffffff1690565b60606003805461033790611240565b6001600160a01b03821633141561089b5760405163b06307db60e01b815260040160405180910390fd5b3360008181526007602090815260408083206001600160a01b03871680855290835292819020805460ff191686151590811790915590519081529192917f17307eab39ab6107e8899845ad3d59bd9653f200f220920489ca2b5937696c31910160405180910390a35050565b61091284848461049e565b6001600160a01b0383163b1561094b5761092e84848484610b46565b61094b576040516368d2bf6b60e11b815260040160405180910390fd5b50505050565b606061095c826109da565b6109a85760405162461bcd60e51b815260206004820152601f60248201527f43616e6e6f74207175657279206e6f6e2d6578697374656e7420746f6b656e00604482015260640161065e565b60086109b383610c3e565b6040516020016109c49291906110b7565b6040516020818303038152906040529050919050565b6000805482108015610322575050600090815260046020526040902054600160e01b161590565b600081600054811015610a5057600081815260046020526040902054600160e01b8116610a4e575b80610a47575060001901600081815260046020526040902054610a29565b9392505050565b505b604051636f96cda160e11b815260040160405180910390fd5b6000546001600160a01b038316610a9257604051622e076360e81b815260040160405180910390fd5b81610ab05760405163b562e8dd60e01b815260040160405180910390fd5b6001600160a01b038316600081815260056020526040902080546801000000000000000185020190554260a01b6001841460e11b1717600082815260046020526040902055808281015b6040516001830192906001600160a01b038716906000907fddf252ad1be2c89b69c2b068fc378daa952ba7f163c4a11628f55a4df523b3ef908290a4808210610afa5760005550505050565b604051630a85bd0160e11b81526000906001600160a01b0385169063150b7a0290610b7b90339089908890889060040161115e565b602060405180830381600087803b158015610b9557600080fd5b505af1925050508015610bc5575060408051601f3d908101601f19168201909252610bc291810190610ff0565b60015b610c20573d808015610bf3576040519150601f19603f3d011682016040523d82523d6000602084013e610bf8565b606091505b508051610c18576040516368d2bf6b60e11b815260040160405180910390fd5b805181602001fd5b6001600160e01b031916630a85bd0160e11b1490505b949350505050565b606081610c625750506040805180820190915260018152600360fc1b602082015290565b8160005b8115610c8c5780610c768161127b565b9150610c859050600a836111e9565b9150610c66565b60008167ffffffffffffffff811115610ca757610ca76112ec565b6040519080825280601f01601f191660200182016040528015610cd1576020820181803683370190505b5090505b8415610c3657610ce66001836111fd565b9150610cf3600a86611296565b610cfe9060306111d1565b60f81b818381518110610d1357610d136112d6565b60200101906001600160f81b031916908160001a905350610d35600a866111e9565b9450610cd5565b828054610d4890611240565b90600052602060002090601f016020900481019282610d6a5760008555610db0565b82601f10610d8357805160ff1916838001178555610db0565b82800160010185558215610db0579182015b82811115610db0578251825591602001919060010190610d95565b50610dbc929150610dc0565b5090565b5b80821115610dbc5760008155600101610dc1565b600067ffffffffffffffff80841115610df057610df06112ec565b604051601f8501601f19908116603f01168101908282118183101715610e1857610e186112ec565b81604052809350858152868686011115610e3157600080fd5b858560208301376000602087830101525050509392505050565b80356001600160a01b0381168114610e6257600080fd5b919050565b600060208284031215610e7957600080fd5b610a4782610e4b565b60008060408385031215610e9557600080fd5b610e9e83610e4b565b9150610eac60208401610e4b565b90509250929050565b600080600060608486031215610eca57600080fd5b610ed384610e4b565b9250610ee160208501610e4b565b9150604084013590509250925092565b60008060008060808587031215610f0757600080fd5b610f1085610e4b565b9350610f1e60208601610e4b565b925060408501359150606085013567ffffffffffffffff811115610f4157600080fd5b8501601f81018713610f5257600080fd5b610f6187823560208401610dd5565b91505092959194509250565b60008060408385031215610f8057600080fd5b610f8983610e4b565b915060208301358015158114610f9e57600080fd5b809150509250929050565b60008060408385031215610fbc57600080fd5b610fc583610e4b565b946020939093013593505050565b600060208284031215610fe557600080fd5b8135610a4781611302565b60006020828403121561100257600080fd5b8151610a4781611302565b60006020828403121561101f57600080fd5b813567ffffffffffffffff81111561103657600080fd5b8201601f8101841361104757600080fd5b610c3684823560208401610dd5565b60006020828403121561106857600080fd5b5035919050565b60008151808452611087816020860160208601611214565b601f01601f19169290920160200192915050565b600081516110ad818560208601611214565b9290920192915050565b600080845481600182811c9150808316806110d357607f831692505b60208084108214156110f357634e487b7160e01b86526022600452602486fd5b818015611107576001811461111857611145565b60ff19861689528489019650611145565b60008b81526020902060005b8681101561113d5781548b820152908501908301611124565b505084890196505b505050505050611155818561109b565b95945050505050565b6001600160a01b03858116825284166020820152604081018390526080606082018190526000906111919083018461106f565b9695505050505050565b602081526000610a47602083018461106f565b6020808252600990820152682737ba1030b236b4b760b91b604082015260600190565b600082198211156111e4576111e46112aa565b500190565b6000826111f8576111f86112c0565b500490565b60008282101561120f5761120f6112aa565b500390565b60005b8381101561122f578181015183820152602001611217565b8381111561094b5750506000910152565b600181811c9082168061125457607f821691505b6020821081141561127557634e487b7160e01b600052602260045260246000fd5b50919050565b600060001982141561128f5761128f6112aa565b5060010190565b6000826112a5576112a56112c0565b500690565b634e487b7160e01b600052601160045260246000fd5b634e487b7160e01b600052601260045260246000fd5b634e487b7160e01b600052603260045260246000fd5b634e487b7160e01b600052604160045260246000fd5b6001600160e01b03198116811461131857600080fd5b5056fea2646970667358221220368e0e467175b68cfaf89647f19e87192abcb31d884661097528b3907ad3e9bc64736f6c63430008070033",
  "immutableReferences": {},
  "source": "// SPDX-License-Identifier: MIT\npragma solidity ^0.8.0;\nimport \"@openzeppelin/contracts/access/AccessControl.sol\";\nimport \"@openzeppelin/contracts/utils/Strings.sol\";\n\nimport \"erc721a/contracts/ERC721A.sol\";\n\ncontract NordiaForFuture is ERC721A {\n  using Strings for uint256;\n  string public baseURI;\n  mapping (address => bool) controllers;\n\n  constructor() ERC721A(\"NordiaForFuture\", \"NFF\") {\n    controllers[msg.sender] = true;\n  }\n  modifier hasRole() {\n    require(controllers[msg.sender], \"Not admin\");\n    _;\n  }\n  function setRole(address account) external hasRole {\n    controllers[account] = true;\n  }\n  function removeRole(address account) external hasRole {\n    controllers[account] = false;\n  }\n\n  function mint(address account, uint256 quantity) external hasRole {\n      // `_mint`'s second argument now takes in a `quantity`, not a `tokenId`.\n      _mint(account, quantity);\n  }\n  function tokenURI(uint256 tokenId)\n    public\n    view\n    override(ERC721A)\n    returns (string memory)\n  {\n    require(_exists(tokenId), \"Cannot query non-existent token\");\n    \n    return string(abi.encodePacked(baseURI, tokenId.toString()));\n  }\n  function setBaseURI(string memory uri) external hasRole {\n    baseURI = uri;\n  }\n}\n",
  "sourcePath": "E:\\Projects\\Solidity\\NordiaForFuture\\contracts\\NordiaForFuture.sol",
  "compiler": {
    "name": "solc",
    "version": "0.8.7+commit.e28d00a7.Emscripten.clang"
  },
  "schemaVersion": "3.4.3",
  "updatedAt": "2022-07-16T21:22:31.400Z",
  "networkType": "ethereum",
  "devdoc": {
    "kind": "dev",
    "methods": {
      "approve(address,uint256)": {
        "details": "See {IERC721-approve}."
      },
      "balanceOf(address)": {
        "details": "See {IERC721-balanceOf}."
      },
      "getApproved(uint256)": {
        "details": "See {IERC721-getApproved}."
      },
      "isApprovedForAll(address,address)": {
        "details": "See {IERC721-isApprovedForAll}."
      },
      "name()": {
        "details": "See {IERC721Metadata-name}."
      },
      "ownerOf(uint256)": {
        "details": "See {IERC721-ownerOf}."
      },
      "safeTransferFrom(address,address,uint256)": {
        "details": "See {IERC721-safeTransferFrom}."
      },
      "safeTransferFrom(address,address,uint256,bytes)": {
        "details": "See {IERC721-safeTransferFrom}."
      },
      "setApprovalForAll(address,bool)": {
        "details": "See {IERC721-setApprovalForAll}."
      },
      "supportsInterface(bytes4)": {
        "details": "See {IERC165-supportsInterface}."
      },
      "symbol()": {
        "details": "See {IERC721Metadata-symbol}."
      },
      "tokenURI(uint256)": {
        "details": "See {IERC721Metadata-tokenURI}."
      },
      "totalSupply()": {
        "details": "Returns the total number of tokens in existence. Burned tokens will reduce the count. To get the total number of tokens minted, please see `_totalMinted`."
      },
      "transferFrom(address,address,uint256)": {
        "details": "Transfers `tokenId` from `from` to `to`. Requirements: - `to` cannot be the zero address. - `tokenId` token must be owned by `from`. Emits a {Transfer} event."
      }
    },
    "version": 1
  },
  "userdoc": {
    "errors": {
      "ApprovalCallerNotOwnerNorApproved()": [
        {
          "notice": "The caller must own the token or be an approved operator."
        }
      ],
      "ApprovalQueryForNonexistentToken()": [
        {
          "notice": "The token does not exist."
        }
      ],
      "ApproveToCaller()": [
        {
          "notice": "The caller cannot approve to their own address."
        }
      ],
      "BalanceQueryForZeroAddress()": [
        {
          "notice": "Cannot query the balance for the zero address."
        }
      ],
      "MintERC2309QuantityExceedsLimit()": [
        {
          "notice": "The `quantity` minted with ERC2309 exceeds the safety limit."
        }
      ],
      "MintToZeroAddress()": [
        {
          "notice": "Cannot mint to the zero address."
        }
      ],
      "MintZeroQuantity()": [
        {
          "notice": "The quantity of tokens minted must be more than zero."
        }
      ],
      "OwnerQueryForNonexistentToken()": [
        {
          "notice": "The token does not exist."
        }
      ],
      "OwnershipNotInitializedForExtraData()": [
        {
          "notice": "The `extraData` cannot be set on an unintialized ownership slot."
        }
      ],
      "TransferCallerNotOwnerNorApproved()": [
        {
          "notice": "The caller must own the token or be an approved operator."
        }
      ],
      "TransferFromIncorrectOwner()": [
        {
          "notice": "The token must be owned by `from`."
        }
      ],
      "TransferToNonERC721ReceiverImplementer()": [
        {
          "notice": "Cannot safely transfer to a contract that does not implement the ERC721Receiver interface."
        }
      ],
      "TransferToZeroAddress()": [
        {
          "notice": "Cannot transfer to the zero address."
        }
      ],
      "URIQueryForNonexistentToken()": [
        {
          "notice": "The token does not exist."
        }
      ]
    },
    "kind": "user",
    "methods": {},
    "version": 1
  }
}