{
  "contractName": "NordiaForFuture",
  "abi": [
    {
      "inputs": [],
      "stateMutability": "nonpayable",
      "type": "constructor"
    },
    {
      "anonymous": false,
      "inputs": [
        {
          "indexed": true,
          "internalType": "address",
          "name": "owner",
          "type": "address"
        },
        {
          "indexed": true,
          "internalType": "address",
          "name": "approved",
          "type": "address"
        },
        {
          "indexed": true,
          "internalType": "uint256",
          "name": "tokenId",
          "type": "uint256"
        }
      ],
      "name": "Approval",
      "type": "event"
    },
    {
      "anonymous": false,
      "inputs": [
        {
          "indexed": true,
          "internalType": "address",
          "name": "owner",
          "type": "address"
        },
        {
          "indexed": true,
          "internalType": "address",
          "name": "operator",
          "type": "address"
        },
        {
          "indexed": false,
          "internalType": "bool",
          "name": "approved",
          "type": "bool"
        }
      ],
      "name": "ApprovalForAll",
      "type": "event"
    },
    {
      "anonymous": false,
      "inputs": [
        {
          "indexed": true,
          "internalType": "bytes32",
          "name": "role",
          "type": "bytes32"
        },
        {
          "indexed": true,
          "internalType": "bytes32",
          "name": "previousAdminRole",
          "type": "bytes32"
        },
        {
          "indexed": true,
          "internalType": "bytes32",
          "name": "newAdminRole",
          "type": "bytes32"
        }
      ],
      "name": "RoleAdminChanged",
      "type": "event"
    },
    {
      "anonymous": false,
      "inputs": [
        {
          "indexed": true,
          "internalType": "bytes32",
          "name": "role",
          "type": "bytes32"
        },
        {
          "indexed": true,
          "internalType": "address",
          "name": "account",
          "type": "address"
        },
        {
          "indexed": true,
          "internalType": "address",
          "name": "sender",
          "type": "address"
        }
      ],
      "name": "RoleGranted",
      "type": "event"
    },
    {
      "anonymous": false,
      "inputs": [
        {
          "indexed": true,
          "internalType": "bytes32",
          "name": "role",
          "type": "bytes32"
        },
        {
          "indexed": true,
          "internalType": "address",
          "name": "account",
          "type": "address"
        },
        {
          "indexed": true,
          "internalType": "address",
          "name": "sender",
          "type": "address"
        }
      ],
      "name": "RoleRevoked",
      "type": "event"
    },
    {
      "anonymous": false,
      "inputs": [
        {
          "indexed": true,
          "internalType": "address",
          "name": "from",
          "type": "address"
        },
        {
          "indexed": true,
          "internalType": "address",
          "name": "to",
          "type": "address"
        },
        {
          "indexed": true,
          "internalType": "uint256",
          "name": "tokenId",
          "type": "uint256"
        }
      ],
      "name": "Transfer",
      "type": "event"
    },
    {
      "inputs": [],
      "name": "DEFAULT_ADMIN_ROLE",
      "outputs": [
        {
          "internalType": "bytes32",
          "name": "",
          "type": "bytes32"
        }
      ],
      "stateMutability": "view",
      "type": "function",
      "constant": true
    },
    {
      "inputs": [
        {
          "internalType": "address",
          "name": "to",
          "type": "address"
        },
        {
          "internalType": "uint256",
          "name": "tokenId",
          "type": "uint256"
        }
      ],
      "name": "approve",
      "outputs": [],
      "stateMutability": "nonpayable",
      "type": "function"
    },
    {
      "inputs": [
        {
          "internalType": "address",
          "name": "owner",
          "type": "address"
        }
      ],
      "name": "balanceOf",
      "outputs": [
        {
          "internalType": "uint256",
          "name": "",
          "type": "uint256"
        }
      ],
      "stateMutability": "view",
      "type": "function",
      "constant": true
    },
    {
      "inputs": [
        {
          "internalType": "uint256",
          "name": "tokenId",
          "type": "uint256"
        }
      ],
      "name": "getApproved",
      "outputs": [
        {
          "internalType": "address",
          "name": "",
          "type": "address"
        }
      ],
      "stateMutability": "view",
      "type": "function",
      "constant": true
    },
    {
      "inputs": [
        {
          "internalType": "bytes32",
          "name": "role",
          "type": "bytes32"
        }
      ],
      "name": "getRoleAdmin",
      "outputs": [
        {
          "internalType": "bytes32",
          "name": "",
          "type": "bytes32"
        }
      ],
      "stateMutability": "view",
      "type": "function",
      "constant": true
    },
    {
      "inputs": [
        {
          "internalType": "bytes32",
          "name": "role",
          "type": "bytes32"
        },
        {
          "internalType": "address",
          "name": "account",
          "type": "address"
        }
      ],
      "name": "grantRole",
      "outputs": [],
      "stateMutability": "nonpayable",
      "type": "function"
    },
    {
      "inputs": [
        {
          "internalType": "bytes32",
          "name": "role",
          "type": "bytes32"
        },
        {
          "internalType": "address",
          "name": "account",
          "type": "address"
        }
      ],
      "name": "hasRole",
      "outputs": [
        {
          "internalType": "bool",
          "name": "",
          "type": "bool"
        }
      ],
      "stateMutability": "view",
      "type": "function",
      "constant": true
    },
    {
      "inputs": [
        {
          "internalType": "address",
          "name": "owner",
          "type": "address"
        },
        {
          "internalType": "address",
          "name": "operator",
          "type": "address"
        }
      ],
      "name": "isApprovedForAll",
      "outputs": [
        {
          "internalType": "bool",
          "name": "",
          "type": "bool"
        }
      ],
      "stateMutability": "view",
      "type": "function",
      "constant": true
    },
    {
      "inputs": [],
      "name": "name",
      "outputs": [
        {
          "internalType": "string",
          "name": "",
          "type": "string"
        }
      ],
      "stateMutability": "view",
      "type": "function",
      "constant": true
    },
    {
      "inputs": [
        {
          "internalType": "uint256",
          "name": "tokenId",
          "type": "uint256"
        }
      ],
      "name": "ownerOf",
      "outputs": [
        {
          "internalType": "address",
          "name": "",
          "type": "address"
        }
      ],
      "stateMutability": "view",
      "type": "function",
      "constant": true
    },
    {
      "inputs": [
        {
          "internalType": "bytes32",
          "name": "role",
          "type": "bytes32"
        },
        {
          "internalType": "address",
          "name": "account",
          "type": "address"
        }
      ],
      "name": "renounceRole",
      "outputs": [],
      "stateMutability": "nonpayable",
      "type": "function"
    },
    {
      "inputs": [
        {
          "internalType": "bytes32",
          "name": "role",
          "type": "bytes32"
        },
        {
          "internalType": "address",
          "name": "account",
          "type": "address"
        }
      ],
      "name": "revokeRole",
      "outputs": [],
      "stateMutability": "nonpayable",
      "type": "function"
    },
    {
      "inputs": [
        {
          "internalType": "address",
          "name": "from",
          "type": "address"
        },
        {
          "internalType": "address",
          "name": "to",
          "type": "address"
        },
        {
          "internalType": "uint256",
          "name": "tokenId",
          "type": "uint256"
        }
      ],
      "name": "safeTransferFrom",
      "outputs": [],
      "stateMutability": "nonpayable",
      "type": "function"
    },
    {
      "inputs": [
        {
          "internalType": "address",
          "name": "from",
          "type": "address"
        },
        {
          "internalType": "address",
          "name": "to",
          "type": "address"
        },
        {
          "internalType": "uint256",
          "name": "tokenId",
          "type": "uint256"
        },
        {
          "internalType": "bytes",
          "name": "data",
          "type": "bytes"
        }
      ],
      "name": "safeTransferFrom",
      "outputs": [],
      "stateMutability": "nonpayable",
      "type": "function"
    },
    {
      "inputs": [
        {
          "internalType": "address",
          "name": "operator",
          "type": "address"
        },
        {
          "internalType": "bool",
          "name": "approved",
          "type": "bool"
        }
      ],
      "name": "setApprovalForAll",
      "outputs": [],
      "stateMutability": "nonpayable",
      "type": "function"
    },
    {
      "inputs": [],
      "name": "symbol",
      "outputs": [
        {
          "internalType": "string",
          "name": "",
          "type": "string"
        }
      ],
      "stateMutability": "view",
      "type": "function",
      "constant": true
    },
    {
      "inputs": [
        {
          "internalType": "uint256",
          "name": "index",
          "type": "uint256"
        }
      ],
      "name": "tokenByIndex",
      "outputs": [
        {
          "internalType": "uint256",
          "name": "",
          "type": "uint256"
        }
      ],
      "stateMutability": "view",
      "type": "function",
      "constant": true
    },
    {
      "inputs": [
        {
          "internalType": "address",
          "name": "owner",
          "type": "address"
        },
        {
          "internalType": "uint256",
          "name": "index",
          "type": "uint256"
        }
      ],
      "name": "tokenOfOwnerByIndex",
      "outputs": [
        {
          "internalType": "uint256",
          "name": "",
          "type": "uint256"
        }
      ],
      "stateMutability": "view",
      "type": "function",
      "constant": true
    },
    {
      "inputs": [
        {
          "internalType": "address",
          "name": "from",
          "type": "address"
        },
        {
          "internalType": "address",
          "name": "to",
          "type": "address"
        },
        {
          "internalType": "uint256",
          "name": "tokenId",
          "type": "uint256"
        }
      ],
      "name": "transferFrom",
      "outputs": [],
      "stateMutability": "nonpayable",
      "type": "function"
    },
    {
      "inputs": [],
      "name": "totalSupply",
      "outputs": [
        {
          "internalType": "uint256",
          "name": "",
          "type": "uint256"
        }
      ],
      "stateMutability": "view",
      "type": "function",
      "constant": true
    },
    {
      "inputs": [
        {
          "internalType": "address",
          "name": "minter",
          "type": "address"
        }
      ],
      "name": "mint",
      "outputs": [],
      "stateMutability": "nonpayable",
      "type": "function"
    },
    {
      "inputs": [
        {
          "internalType": "uint256",
          "name": "tokenId",
          "type": "uint256"
        }
      ],
      "name": "tokenURI",
      "outputs": [
        {
          "internalType": "string",
          "name": "",
          "type": "string"
        }
      ],
      "stateMutability": "view",
      "type": "function",
      "constant": true
    },
    {
      "inputs": [
        {
          "internalType": "bytes4",
          "name": "interfaceId",
          "type": "bytes4"
        }
      ],
      "name": "supportsInterface",
      "outputs": [
        {
          "internalType": "bool",
          "name": "",
          "type": "bool"
        }
      ],
      "stateMutability": "view",
      "type": "function",
      "constant": true
    },
    {
      "inputs": [
        {
          "internalType": "string",
          "name": "uri",
          "type": "string"
        }
      ],
      "name": "setBaseURI",
      "outputs": [],
      "stateMutability": "nonpayable",
      "type": "function"
    }
  ],
  "bytecode": "0x60806040523480156200001157600080fd5b50604080518082018252600f81526e4e6f72646961466f7246757475726560881b60208083019182528351808501909452600384526227232360e91b908401528151919291620000649160009162000146565b5080516200007a90600190602084019062000146565b506200008c9150600090503362000092565b62000229565b6200009e8282620000a2565b5050565b6000828152600a602090815260408083206001600160a01b038516845290915290205460ff166200009e576000828152600a602090815260408083206001600160a01b03851684529091529020805460ff19166001179055620001023390565b6001600160a01b0316816001600160a01b0316837f2f8788117e7eff1d82e926ec794901d17c78024a50270940304540a733656f0d60405160405180910390a45050565b8280546200015490620001ec565b90600052602060002090601f016020900481019282620001785760008555620001c3565b82601f106200019357805160ff1916838001178555620001c3565b82800160010185558215620001c3579182015b82811115620001c3578251825591602001919060010190620001a6565b50620001d1929150620001d5565b5090565b5b80821115620001d15760008155600101620001d6565b600181811c908216806200020157607f821691505b602082108114156200022357634e487b7160e01b600052602260045260246000fd5b50919050565b611f2080620002396000396000f3fe608060405234801561001057600080fd5b50600436106101585760003560e01c806355f804b3116100c3578063a217fddf1161007c578063a217fddf146102e8578063a22cb465146102f0578063b88d4fde14610303578063c87b56dd14610316578063d547741f14610329578063e985e9c51461033c57600080fd5b806355f804b3146102815780636352211e146102945780636a627842146102a757806370a08231146102ba57806391d14854146102cd57806395d89b41146102e057600080fd5b8063248a9ca311610115578063248a9ca3146101ff5780632f2ff15d146102225780632f745c591461023557806336568abe1461024857806342842e0e1461025b5780634f6ccce71461026e57600080fd5b806301ffc9a71461015d57806306fdde0314610185578063081812fc1461019a578063095ea7b3146101c557806318160ddd146101da57806323b872dd146101ec575b600080fd5b61017061016b366004611b14565b610378565b60405190151581526020015b60405180910390f35b61018d6103d9565b60405161017c9190611ca4565b6101ad6101a8366004611ad8565b61046b565b6040516001600160a01b03909116815260200161017c565b6101d86101d3366004611aae565b610492565b005b600d545b60405190815260200161017c565b6101d86101fa3660046119ba565b6105ad565b6101de61020d366004611ad8565b6000908152600a602052604090206001015490565b6101d8610230366004611af1565b6105de565b6101de610243366004611aae565b610603565b6101d8610256366004611af1565b610699565b6101d86102693660046119ba565b610717565b6101de61027c366004611ad8565b610732565b6101d861028f366004611b4e565b6107c5565b6101ad6102a2366004611ad8565b61081b565b6101d86102b536600461196c565b61087b565b6101de6102c836600461196c565b6108e2565b6101706102db366004611af1565b610968565b61018d610993565b6101de600081565b6101d86102fe366004611a72565b6109a2565b6101d86103113660046119f6565b6109ad565b61018d610324366004611ad8565b6109e5565b6101d8610337366004611af1565b610a84565b61017061034a366004611987565b6001600160a01b03918216600090815260056020908152604080832093909416825291909152205460ff1690565b60006001600160e01b031982166380ac58cd60e01b14806103a957506001600160e01b03198216635b5e139f60e01b145b806103c457506001600160e01b0319821663780e9d6360e01b145b806103d357506103d382610aa9565b92915050565b6060600080546103e890611dfc565b80601f016020809104026020016040519081016040528092919081815260200182805461041490611dfc565b80156104615780601f1061043657610100808354040283529160200191610461565b820191906000526020600020905b81548152906001019060200180831161044457829003601f168201915b5050505050905090565b600061047682610ace565b506000908152600460205260409020546001600160a01b031690565b600061049d8261081b565b9050806001600160a01b0316836001600160a01b031614156105105760405162461bcd60e51b815260206004820152602160248201527f4552433732313a20617070726f76616c20746f2063757272656e74206f776e656044820152603960f91b60648201526084015b60405180910390fd5b336001600160a01b038216148061052c575061052c813361034a565b61059e5760405162461bcd60e51b815260206004820152603e60248201527f4552433732313a20617070726f76652063616c6c6572206973206e6f7420746f60448201527f6b656e206f776e6572206e6f7220617070726f76656420666f7220616c6c00006064820152608401610507565b6105a88383610b30565b505050565b6105b73382610b9e565b6105d35760405162461bcd60e51b815260040161050790611d09565b6105a8838383610c1d565b6000828152600a60205260409020600101546105f981610dc4565b6105a88383610dce565b600061060e836108e2565b82106106705760405162461bcd60e51b815260206004820152602b60248201527f455243373231456e756d657261626c653a206f776e657220696e646578206f7560448201526a74206f6620626f756e647360a81b6064820152608401610507565b506001600160a01b03919091166000908152600660209081526040808320938352929052205490565b6001600160a01b03811633146107095760405162461bcd60e51b815260206004820152602f60248201527f416363657373436f6e74726f6c3a2063616e206f6e6c792072656e6f756e636560448201526e103937b632b9903337b91039b2b63360891b6064820152608401610507565b6107138282610e54565b5050565b6105a8838383604051806020016040528060008152506109ad565b600061073d60085490565b82106107a05760405162461bcd60e51b815260206004820152602c60248201527f455243373231456e756d657261626c653a20676c6f62616c20696e646578206f60448201526b7574206f6620626f756e647360a01b6064820152608401610507565b600882815481106107b3576107b3611ea8565b90600052602060002001549050919050565b6107d0600033610968565b6108085760405162461bcd60e51b81526020600482015260096024820152682737ba1030b236b4b760b91b6044820152606401610507565b805161071390600c906020840190611841565b6000818152600260205260408120546001600160a01b0316806103d35760405162461bcd60e51b8152602060048201526018602482015277115490cdcc8c4e881a5b9d985b1a59081d1bdad95b88125160421b6044820152606401610507565b610886600033610968565b6108be5760405162461bcd60e51b81526020600482015260096024820152682737ba1030b236b4b760b91b6044820152606401610507565b6108ca81600d54610ebb565b600d80549060006108da83611e37565b919050555050565b60006001600160a01b03821661094c5760405162461bcd60e51b815260206004820152602960248201527f4552433732313a2061646472657373207a65726f206973206e6f7420612076616044820152683634b21037bbb732b960b91b6064820152608401610507565b506001600160a01b031660009081526003602052604090205490565b6000918252600a602090815260408084206001600160a01b0393909316845291905290205460ff1690565b6060600180546103e890611dfc565b610713338383610ed5565b6109b73383610b9e565b6109d35760405162461bcd60e51b815260040161050790611d09565b6109df84848484610fa4565b50505050565b6000818152600260205260409020546060906001600160a01b0316610a4c5760405162461bcd60e51b815260206004820152601f60248201527f43616e6e6f74207175657279206e6f6e2d6578697374656e7420746f6b656e006044820152606401610507565b610a54610fd7565b610a5d83610fe6565b604051602001610a6e929190611bc3565b6040516020818303038152906040529050919050565b6000828152600a6020526040902060010154610a9f81610dc4565b6105a88383610e54565b60006001600160e01b03198216637965db0b60e01b14806103d357506103d3826110e4565b6000818152600260205260409020546001600160a01b0316610b2d5760405162461bcd60e51b8152602060048201526018602482015277115490cdcc8c4e881a5b9d985b1a59081d1bdad95b88125160421b6044820152606401610507565b50565b600081815260046020526040902080546001600160a01b0319166001600160a01b0384169081179091558190610b658261081b565b6001600160a01b03167f8c5be1e5ebec7d5bd14f71427d1e84f3dd0314c0f7b2291e5b200ac8c7c3b92560405160405180910390a45050565b600080610baa8361081b565b9050806001600160a01b0316846001600160a01b03161480610bf157506001600160a01b0380821660009081526005602090815260408083209388168352929052205460ff165b80610c155750836001600160a01b0316610c0a8461046b565b6001600160a01b0316145b949350505050565b826001600160a01b0316610c308261081b565b6001600160a01b031614610c945760405162461bcd60e51b815260206004820152602560248201527f4552433732313a207472616e736665722066726f6d20696e636f72726563742060448201526437bbb732b960d91b6064820152608401610507565b6001600160a01b038216610cf65760405162461bcd60e51b8152602060048201526024808201527f4552433732313a207472616e7366657220746f20746865207a65726f206164646044820152637265737360e01b6064820152608401610507565b610d01838383611109565b610d0c600082610b30565b6001600160a01b0383166000908152600360205260408120805460019290610d35908490611da2565b90915550506001600160a01b0382166000908152600360205260408120805460019290610d63908490611d57565b909155505060008181526002602052604080822080546001600160a01b0319166001600160a01b0386811691821790925591518493918716917fddf252ad1be2c89b69c2b068fc378daa952ba7f163c4a11628f55a4df523b3ef91a4505050565b610b2d8133611114565b610dd88282610968565b610713576000828152600a602090815260408083206001600160a01b03851684529091529020805460ff19166001179055610e103390565b6001600160a01b0316816001600160a01b0316837f2f8788117e7eff1d82e926ec794901d17c78024a50270940304540a733656f0d60405160405180910390a45050565b610e5e8282610968565b15610713576000828152600a602090815260408083206001600160a01b0385168085529252808320805460ff1916905551339285917ff6391f5c32d9c69d2a47ea670b442974b53935d1edc7fd64eb21e047a839171b9190a45050565b610713828260405180602001604052806000815250611178565b816001600160a01b0316836001600160a01b03161415610f375760405162461bcd60e51b815260206004820152601960248201527f4552433732313a20617070726f766520746f2063616c6c6572000000000000006044820152606401610507565b6001600160a01b03838116600081815260056020908152604080832094871680845294825291829020805460ff191686151590811790915591519182527f17307eab39ab6107e8899845ad3d59bd9653f200f220920489ca2b5937696c31910160405180910390a3505050565b610faf848484610c1d565b610fbb848484846111ab565b6109df5760405162461bcd60e51b815260040161050790611cb7565b6060600c80546103e890611dfc565b60608161100a5750506040805180820190915260018152600360fc1b602082015290565b8160005b8115611034578061101e81611e37565b915061102d9050600a83611d6f565b915061100e565b60008167ffffffffffffffff81111561104f5761104f611ebe565b6040519080825280601f01601f191660200182016040528015611079576020820181803683370190505b5090505b8415610c155761108e600183611da2565b915061109b600a86611e52565b6110a6906030611d57565b60f81b8183815181106110bb576110bb611ea8565b60200101906001600160f81b031916908160001a9053506110dd600a86611d6f565b945061107d565b60006001600160e01b0319821663780e9d6360e01b14806103d357506103d3826112b8565b6105a8838383611308565b61111e8282610968565b61071357611136816001600160a01b031660146113c0565b6111418360206113c0565b604051602001611152929190611bf2565b60408051601f198184030181529082905262461bcd60e51b825261050791600401611ca4565b6111828383611563565b61118f60008484846111ab565b6105a85760405162461bcd60e51b815260040161050790611cb7565b60006001600160a01b0384163b156112ad57604051630a85bd0160e11b81526001600160a01b0385169063150b7a02906111ef903390899088908890600401611c67565b602060405180830381600087803b15801561120957600080fd5b505af1925050508015611239575060408051601f3d908101601f1916820190925261123691810190611b31565b60015b611293573d808015611267576040519150601f19603f3d011682016040523d82523d6000602084013e61126c565b606091505b50805161128b5760405162461bcd60e51b815260040161050790611cb7565b805181602001fd5b6001600160e01b031916630a85bd0160e11b149050610c15565b506001949350505050565b60006001600160e01b031982166380ac58cd60e01b14806112e957506001600160e01b03198216635b5e139f60e01b145b806103d357506301ffc9a760e01b6001600160e01b03198316146103d3565b6001600160a01b0383166113635761135e81600880546000838152600960205260408120829055600182018355919091527ff3f7a9fe364faab93b216da50a3214154f22a0a2b415b23a84c8169e8b636ee30155565b611386565b816001600160a01b0316836001600160a01b0316146113865761138683826116b1565b6001600160a01b03821661139d576105a88161174e565b826001600160a01b0316826001600160a01b0316146105a8576105a882826117fd565b606060006113cf836002611d83565b6113da906002611d57565b67ffffffffffffffff8111156113f2576113f2611ebe565b6040519080825280601f01601f19166020018201604052801561141c576020820181803683370190505b509050600360fc1b8160008151811061143757611437611ea8565b60200101906001600160f81b031916908160001a905350600f60fb1b8160018151811061146657611466611ea8565b60200101906001600160f81b031916908160001a905350600061148a846002611d83565b611495906001611d57565b90505b600181111561150d576f181899199a1a9b1b9c1cb0b131b232b360811b85600f16601081106114c9576114c9611ea8565b1a60f81b8282815181106114df576114df611ea8565b60200101906001600160f81b031916908160001a90535060049490941c9361150681611de5565b9050611498565b50831561155c5760405162461bcd60e51b815260206004820181905260248201527f537472696e67733a20686578206c656e67746820696e73756666696369656e746044820152606401610507565b9392505050565b6001600160a01b0382166115b95760405162461bcd60e51b815260206004820181905260248201527f4552433732313a206d696e7420746f20746865207a65726f20616464726573736044820152606401610507565b6000818152600260205260409020546001600160a01b03161561161e5760405162461bcd60e51b815260206004820152601c60248201527f4552433732313a20746f6b656e20616c7265616479206d696e746564000000006044820152606401610507565b61162a60008383611109565b6001600160a01b0382166000908152600360205260408120805460019290611653908490611d57565b909155505060008181526002602052604080822080546001600160a01b0319166001600160a01b03861690811790915590518392907fddf252ad1be2c89b69c2b068fc378daa952ba7f163c4a11628f55a4df523b3ef908290a45050565b600060016116be846108e2565b6116c89190611da2565b60008381526007602052604090205490915080821461171b576001600160a01b03841660009081526006602090815260408083208584528252808320548484528184208190558352600790915290208190555b5060009182526007602090815260408084208490556001600160a01b039094168352600681528383209183525290812055565b60085460009061176090600190611da2565b6000838152600960205260408120546008805493945090928490811061178857611788611ea8565b9060005260206000200154905080600883815481106117a9576117a9611ea8565b60009182526020808320909101929092558281526009909152604080822084905585825281205560088054806117e1576117e1611e92565b6001900381819060005260206000200160009055905550505050565b6000611808836108e2565b6001600160a01b039093166000908152600660209081526040808320868452825280832085905593825260079052919091209190915550565b82805461184d90611dfc565b90600052602060002090601f01602090048101928261186f57600085556118b5565b82601f1061188857805160ff19168380011785556118b5565b828001600101855582156118b5579182015b828111156118b557825182559160200191906001019061189a565b506118c19291506118c5565b5090565b5b808211156118c157600081556001016118c6565b600067ffffffffffffffff808411156118f5576118f5611ebe565b604051601f8501601f19908116603f0116810190828211818310171561191d5761191d611ebe565b8160405280935085815286868601111561193657600080fd5b858560208301376000602087830101525050509392505050565b80356001600160a01b038116811461196757600080fd5b919050565b60006020828403121561197e57600080fd5b61155c82611950565b6000806040838503121561199a57600080fd5b6119a383611950565b91506119b160208401611950565b90509250929050565b6000806000606084860312156119cf57600080fd5b6119d884611950565b92506119e660208501611950565b9150604084013590509250925092565b60008060008060808587031215611a0c57600080fd5b611a1585611950565b9350611a2360208601611950565b925060408501359150606085013567ffffffffffffffff811115611a4657600080fd5b8501601f81018713611a5757600080fd5b611a66878235602084016118da565b91505092959194509250565b60008060408385031215611a8557600080fd5b611a8e83611950565b915060208301358015158114611aa357600080fd5b809150509250929050565b60008060408385031215611ac157600080fd5b611aca83611950565b946020939093013593505050565b600060208284031215611aea57600080fd5b5035919050565b60008060408385031215611b0457600080fd5b823591506119b160208401611950565b600060208284031215611b2657600080fd5b813561155c81611ed4565b600060208284031215611b4357600080fd5b815161155c81611ed4565b600060208284031215611b6057600080fd5b813567ffffffffffffffff811115611b7757600080fd5b8201601f81018413611b8857600080fd5b610c15848235602084016118da565b60008151808452611baf816020860160208601611db9565b601f01601f19169290920160200192915050565b60008351611bd5818460208801611db9565b835190830190611be9818360208801611db9565b01949350505050565b7f416363657373436f6e74726f6c3a206163636f756e7420000000000000000000815260008351611c2a816017850160208801611db9565b7001034b99036b4b9b9b4b733903937b6329607d1b6017918401918201528351611c5b816028840160208801611db9565b01602801949350505050565b6001600160a01b0385811682528416602082015260408101839052608060608201819052600090611c9a90830184611b97565b9695505050505050565b60208152600061155c6020830184611b97565b60208082526032908201527f4552433732313a207472616e7366657220746f206e6f6e20455243373231526560408201527131b2b4bb32b91034b6b83632b6b2b73a32b960711b606082015260800190565b6020808252602e908201527f4552433732313a2063616c6c6572206973206e6f7420746f6b656e206f776e6560408201526d1c881b9bdc88185c1c1c9bdd995960921b606082015260800190565b60008219821115611d6a57611d6a611e66565b500190565b600082611d7e57611d7e611e7c565b500490565b6000816000190483118215151615611d9d57611d9d611e66565b500290565b600082821015611db457611db4611e66565b500390565b60005b83811015611dd4578181015183820152602001611dbc565b838111156109df5750506000910152565b600081611df457611df4611e66565b506000190190565b600181811c90821680611e1057607f821691505b60208210811415611e3157634e487b7160e01b600052602260045260246000fd5b50919050565b6000600019821415611e4b57611e4b611e66565b5060010190565b600082611e6157611e61611e7c565b500690565b634e487b7160e01b600052601160045260246000fd5b634e487b7160e01b600052601260045260246000fd5b634e487b7160e01b600052603160045260246000fd5b634e487b7160e01b600052603260045260246000fd5b634e487b7160e01b600052604160045260246000fd5b6001600160e01b031981168114610b2d57600080fdfea2646970667358221220fd3439c3143903dbb90e87000faf42aea26402626f6da755e4ebe57b7306560764736f6c63430008070033",
  "immutableReferences": {},
  "source": "// SPDX-License-Identifier: MIT\npragma solidity ^0.8.0;\nimport \"@openzeppelin/contracts/token/ERC721/IERC721.sol\";\nimport \"@openzeppelin/contracts/token/ERC721/ERC721.sol\";\nimport \"@openzeppelin/contracts/utils/introspection/IERC165.sol\";\nimport \"@openzeppelin/contracts/utils/introspection/ERC165.sol\";\nimport \"@openzeppelin/contracts/token/ERC721/extensions/ERC721Enumerable.sol\";\nimport \"@openzeppelin/contracts/token/ERC721/extensions/ERC721URIStorage.sol\";\nimport \"@openzeppelin/contracts/access/AccessControl.sol\";\nimport \"@openzeppelin/contracts/utils/Strings.sol\";\n\ncontract NordiaForFuture is ERC721, ERC721Enumerable, AccessControl, ERC721URIStorage {\n\n  using Strings for uint256;\n  string private baseURI; \n  uint256 private _totalSupply;\n\n  constructor() ERC721(\"NordiaForFuture\", \"NFF\") {\n    _setupRole(DEFAULT_ADMIN_ROLE, msg.sender);\n  }\n  modifier onlyOwner() {\n    require(hasRole(DEFAULT_ADMIN_ROLE, msg.sender), \"Not admin\");\n    _;\n  }\n  function totalSupply() public view override returns (uint256) {\n    return _totalSupply;\n  }\n  function mint(address minter) external onlyOwner{\n    _safeMint(minter, _totalSupply);\n    _totalSupply++;\n  }\n  function _burn(uint256 tokenId) internal override(ERC721, ERC721URIStorage) {\n    super._burn(tokenId);\n  }\n\n  function tokenURI(uint256 tokenId)\n    public\n    view\n    override(ERC721, ERC721URIStorage)\n    returns (string memory)\n  {\n    require(_exists(tokenId), \"Cannot query non-existent token\");\n    \n    return string(abi.encodePacked(_baseURI(), tokenId.toString()));\n  }\n  function _beforeTokenTransfer(address from, address to, uint256 tokenId) internal override(ERC721, ERC721Enumerable) {\n    super._beforeTokenTransfer(from, to, tokenId);\n  }\n  function supportsInterface(bytes4 interfaceId) public view virtual override(ERC721, ERC721Enumerable, AccessControl) returns (bool) {\n    return\n      interfaceId == type(IERC721).interfaceId ||\n      interfaceId == type(IERC721Metadata).interfaceId ||\n      interfaceId == type(IERC721Enumerable).interfaceId ||\n      super.supportsInterface(interfaceId);\n  }\n  function setBaseURI(string memory uri) public onlyOwner {\n    baseURI = uri;\n  }\n\n  function _baseURI() internal view override returns (string memory) {\n    return baseURI;\n  }\n}\n",
  "sourcePath": "E:\\Projects\\Solidity\\NordiaForFuture\\contracts\\NordiaForFuture.sol",
  "compiler": {
    "name": "solc",
    "version": "0.8.7+commit.e28d00a7.Emscripten.clang"
  },
  "schemaVersion": "3.4.3",
  "updatedAt": "2022-07-12T06:13:15.450Z",
  "networkType": "ethereum",
  "devdoc": {
    "kind": "dev",
    "methods": {
      "approve(address,uint256)": {
        "details": "See {IERC721-approve}."
      },
      "balanceOf(address)": {
        "details": "See {IERC721-balanceOf}."
      },
      "getApproved(uint256)": {
        "details": "See {IERC721-getApproved}."
      },
      "getRoleAdmin(bytes32)": {
        "details": "Returns the admin role that controls `role`. See {grantRole} and {revokeRole}. To change a role's admin, use {_setRoleAdmin}."
      },
      "grantRole(bytes32,address)": {
        "details": "Grants `role` to `account`. If `account` had not been already granted `role`, emits a {RoleGranted} event. Requirements: - the caller must have ``role``'s admin role. May emit a {RoleGranted} event."
      },
      "hasRole(bytes32,address)": {
        "details": "Returns `true` if `account` has been granted `role`."
      },
      "isApprovedForAll(address,address)": {
        "details": "See {IERC721-isApprovedForAll}."
      },
      "name()": {
        "details": "See {IERC721Metadata-name}."
      },
      "ownerOf(uint256)": {
        "details": "See {IERC721-ownerOf}."
      },
      "renounceRole(bytes32,address)": {
        "details": "Revokes `role` from the calling account. Roles are often managed via {grantRole} and {revokeRole}: this function's purpose is to provide a mechanism for accounts to lose their privileges if they are compromised (such as when a trusted device is misplaced). If the calling account had been revoked `role`, emits a {RoleRevoked} event. Requirements: - the caller must be `account`. May emit a {RoleRevoked} event."
      },
      "revokeRole(bytes32,address)": {
        "details": "Revokes `role` from `account`. If `account` had been granted `role`, emits a {RoleRevoked} event. Requirements: - the caller must have ``role``'s admin role. May emit a {RoleRevoked} event."
      },
      "safeTransferFrom(address,address,uint256)": {
        "details": "See {IERC721-safeTransferFrom}."
      },
      "safeTransferFrom(address,address,uint256,bytes)": {
        "details": "See {IERC721-safeTransferFrom}."
      },
      "setApprovalForAll(address,bool)": {
        "details": "See {IERC721-setApprovalForAll}."
      },
      "symbol()": {
        "details": "See {IERC721Metadata-symbol}."
      },
      "tokenByIndex(uint256)": {
        "details": "See {IERC721Enumerable-tokenByIndex}."
      },
      "tokenOfOwnerByIndex(address,uint256)": {
        "details": "See {IERC721Enumerable-tokenOfOwnerByIndex}."
      },
      "totalSupply()": {
        "details": "See {IERC721Enumerable-totalSupply}."
      },
      "transferFrom(address,address,uint256)": {
        "details": "See {IERC721-transferFrom}."
      }
    },
    "version": 1
  },
  "userdoc": {
    "kind": "user",
    "methods": {},
    "version": 1
  }
}