{
  "contractName": "OGSale",
  "abi": [
    {
      "inputs": [],
      "stateMutability": "nonpayable",
      "type": "constructor"
    },
    {
      "anonymous": false,
      "inputs": [
        {
          "indexed": true,
          "internalType": "address",
          "name": "previousOwner",
          "type": "address"
        },
        {
          "indexed": true,
          "internalType": "address",
          "name": "newOwner",
          "type": "address"
        }
      ],
      "name": "OwnershipTransferred",
      "type": "event"
    },
    {
      "inputs": [
        {
          "internalType": "address",
          "name": "",
          "type": "address"
        }
      ],
      "name": "claimCnts",
      "outputs": [
        {
          "internalType": "uint8",
          "name": "",
          "type": "uint8"
        }
      ],
      "stateMutability": "view",
      "type": "function",
      "constant": true
    },
    {
      "inputs": [],
      "name": "maxSaleCnt",
      "outputs": [
        {
          "internalType": "uint256",
          "name": "",
          "type": "uint256"
        }
      ],
      "stateMutability": "view",
      "type": "function",
      "constant": true
    },
    {
      "inputs": [],
      "name": "merkleRoot",
      "outputs": [
        {
          "internalType": "bytes32",
          "name": "",
          "type": "bytes32"
        }
      ],
      "stateMutability": "view",
      "type": "function",
      "constant": true
    },
    {
      "inputs": [],
      "name": "nftContract",
      "outputs": [
        {
          "internalType": "contract INordiaForFuture",
          "name": "",
          "type": "address"
        }
      ],
      "stateMutability": "view",
      "type": "function",
      "constant": true
    },
    {
      "inputs": [],
      "name": "owner",
      "outputs": [
        {
          "internalType": "address",
          "name": "",
          "type": "address"
        }
      ],
      "stateMutability": "view",
      "type": "function",
      "constant": true
    },
    {
      "inputs": [],
      "name": "renounceOwnership",
      "outputs": [],
      "stateMutability": "nonpayable",
      "type": "function"
    },
    {
      "inputs": [
        {
          "internalType": "address",
          "name": "newOwner",
          "type": "address"
        }
      ],
      "name": "transferOwnership",
      "outputs": [],
      "stateMutability": "nonpayable",
      "type": "function"
    },
    {
      "stateMutability": "payable",
      "type": "receive",
      "payable": true
    },
    {
      "inputs": [
        {
          "internalType": "bytes32",
          "name": "_merkleRoot",
          "type": "bytes32"
        }
      ],
      "name": "setMerkleRoot",
      "outputs": [],
      "stateMutability": "nonpayable",
      "type": "function"
    },
    {
      "inputs": [
        {
          "internalType": "address",
          "name": "account",
          "type": "address"
        }
      ],
      "name": "setNFTContract",
      "outputs": [],
      "stateMutability": "nonpayable",
      "type": "function"
    },
    {
      "inputs": [
        {
          "internalType": "bytes32[]",
          "name": "_merkleProof",
          "type": "bytes32[]"
        }
      ],
      "name": "claimNft",
      "outputs": [],
      "stateMutability": "payable",
      "type": "function",
      "payable": true
    },
    {
      "inputs": [],
      "name": "claim",
      "outputs": [],
      "stateMutability": "nonpayable",
      "type": "function"
    }
  ],
  "bytecode": "0x608060405234801561001057600080fd5b5061001a3361001f565b61006f565b600080546001600160a01b038381166001600160a01b0319831681178455604051919092169283917f8be0079c531659141344cd1fd0a4f28419497f9722a3daafe3b4186f6b6457e09190a35050565b6108a68061007e6000396000f3fe6080604052600436106100a05760003560e01c80638da5cb5b116100645780638da5cb5b14610137578063a5a96d0014610169578063a7ccabdf1461017c578063d56d229d1461019c578063ed47ef50146101bc578063f2fde38b146101fe57600080fd5b8063082b9a97146100ac5780632eb4a7ab146100d55780634e71d92d146100eb578063715018a6146101025780637cb647591461011757600080fd5b366100a757005b600080fd5b3480156100b857600080fd5b506100c26107d081565b6040519081526020015b60405180910390f35b3480156100e157600080fd5b506100c260015481565b3480156100f757600080fd5b5061010061021e565b005b34801561010e57600080fd5b50610100610273565b34801561012357600080fd5b506101006101323660046107d7565b610287565b34801561014357600080fd5b506000546001600160a01b03165b6040516001600160a01b0390911681526020016100cc565b610100610177366004610762565b610294565b34801561018857600080fd5b50610100610197366004610739565b610557565b3480156101a857600080fd5b50600254610151906001600160a01b031681565b3480156101c857600080fd5b506101ec6101d7366004610739565b60036020526000908152604090205460ff1681565b60405160ff90911681526020016100cc565b34801561020a57600080fd5b50610100610219366004610739565b610581565b6102266105fa565b604051600090339047908381818185875af1925050503d8060008114610268576040519150601f19603f3d011682016040523d82523d6000602084013e61026d565b606091505b50505050565b61027b6105fa565b6102856000610654565b565b61028f6105fa565b600155565b600254604080516318160ddd60e01b815290516107d0926001600160a01b0316916318160ddd916004808301926020929190829003018186803b1580156102da57600080fd5b505afa1580156102ee573d6000803e3d6000fd5b505050506040513d601f19601f8201168201806040525081019061031291906107f0565b106103515760405162461bcd60e51b815260206004820152600a60248201526914d85b1948195b99195960b21b60448201526064015b60405180910390fd5b33600090815260036020526040902054600260ff909116106103b55760405162461bcd60e51b815260206004820181905260248201527f4f6e6c792032206e66747320617661696c61626c65207065722077616c6c65746044820152606401610348565b3467010a741a46278000146103fd5760405162461bcd60e51b815260206004820152600e60248201526d09cdee840cadcdeeaced040cae8d60931b6044820152606401610348565b6040516bffffffffffffffffffffffff193360601b1660208201526000906034016040516020818303038152906040528051906020012090506104778383808060200260200160405190810160405280939291908181526020018383602002808284376000920191909152505060015491508490506106a4565b6104b35760405162461bcd60e51b815260206004820152600d60248201526c24b73b30b634b210383937b7b360991b6044820152606401610348565b336000908152600360205260408120805460ff16916104d183610824565b825460ff9182166101009390930a9283029190920219909116179055506002546040516340c10f1960e01b8152336004820152600160248201526001600160a01b03909116906340c10f1990604401600060405180830381600087803b15801561053a57600080fd5b505af115801561054e573d6000803e3d6000fd5b50505050505050565b61055f6105fa565b600280546001600160a01b0319166001600160a01b0392909216919091179055565b6105896105fa565b6001600160a01b0381166105ee5760405162461bcd60e51b815260206004820152602660248201527f4f776e61626c653a206e6577206f776e657220697320746865207a65726f206160448201526564647265737360d01b6064820152608401610348565b6105f781610654565b50565b6000546001600160a01b031633146102855760405162461bcd60e51b815260206004820181905260248201527f4f776e61626c653a2063616c6c6572206973206e6f7420746865206f776e65726044820152606401610348565b600080546001600160a01b038381166001600160a01b0319831681178455604051919092169283917f8be0079c531659141344cd1fd0a4f28419497f9722a3daafe3b4186f6b6457e09190a35050565b6000826106b185846106ba565b14949350505050565b600081815b84518110156106ff576106eb828683815181106106de576106de61085a565b6020026020010151610707565b9150806106f781610809565b9150506106bf565b509392505050565b6000818310610723576000828152602084905260409020610732565b60008381526020839052604090205b9392505050565b60006020828403121561074b57600080fd5b81356001600160a01b038116811461073257600080fd5b6000806020838503121561077557600080fd5b823567ffffffffffffffff8082111561078d57600080fd5b818501915085601f8301126107a157600080fd5b8135818111156107b057600080fd5b8660208260051b85010111156107c557600080fd5b60209290920196919550909350505050565b6000602082840312156107e957600080fd5b5035919050565b60006020828403121561080257600080fd5b5051919050565b600060001982141561081d5761081d610844565b5060010190565b600060ff821660ff81141561083b5761083b610844565b60010192915050565b634e487b7160e01b600052601160045260246000fd5b634e487b7160e01b600052603260045260246000fdfea2646970667358221220625fdbe4b8d997aac351eaa54ab7921cf133dcabb3ffac26ab52b2b4c33b56cd64736f6c63430008070033",
  "immutableReferences": {},
  "source": "// SPDX-License-Identifier: MIT\r\npragma solidity ^0.8.0;\r\n\r\nimport \"@openzeppelin/contracts/utils/Context.sol\";\r\nimport \"@openzeppelin/contracts/access/Ownable.sol\";\r\nimport \"@openzeppelin/contracts/utils/cryptography/MerkleProof.sol\";\r\nimport \"./INordiaForFuture.sol\";\r\n\r\ncontract OGSale is Context, Ownable {\r\n    \r\n    bytes32 public merkleRoot;\r\n    INordiaForFuture public nftContract;    \r\n\r\n    mapping(address => uint8) public claimCnts; \r\n    uint256 public constant maxSaleCnt = 2000;\r\n    constructor() {\r\n\r\n    }\r\n    receive() external payable { }\r\n    function setMerkleRoot(bytes32 _merkleRoot) external onlyOwner {\r\n        merkleRoot = _merkleRoot;\r\n    }\r\n    function setNFTContract(address account) external onlyOwner {\r\n        nftContract = INordiaForFuture(account);\r\n    }\r\n\r\n    function claimNft(bytes32[] calldata _merkleProof) external payable {\r\n        require(nftContract.totalSupply() < 2000, \"Sale ended\");\r\n        require(claimCnts[msg.sender] < 2, \"Only 2 nfts available per wallet\");\r\n        require(msg.value == 0.075 ether, \"Not enough eth\");\r\n        bytes32 leaf = keccak256(abi.encodePacked(msg.sender));\r\n        require(MerkleProof.verify(_merkleProof, merkleRoot, leaf), \"Invalid proof\");\r\n        claimCnts[msg.sender] ++;\r\n        nftContract.mint(msg.sender, 1);\r\n    }\r\n\r\n    function claim() external onlyOwner {\r\n        (bool success, ) = payable(msg.sender).call{value: address(this).balance}(\"\");\r\n        success;\r\n    }\r\n\r\n}\r\n",
  "sourcePath": "E:\\Projects\\Solidity\\NordiaForFuture\\contracts\\OGSale.sol",
  "compiler": {
    "name": "solc",
    "version": "0.8.7+commit.e28d00a7.Emscripten.clang"
  },
  "schemaVersion": "3.4.3",
  "updatedAt": "2022-07-16T21:22:31.390Z",
  "networkType": "ethereum",
  "devdoc": {
    "kind": "dev",
    "methods": {
      "owner()": {
        "details": "Returns the address of the current owner."
      },
      "renounceOwnership()": {
        "details": "Leaves the contract without owner. It will not be possible to call `onlyOwner` functions anymore. Can only be called by the current owner. NOTE: Renouncing ownership will leave the contract without an owner, thereby removing any functionality that is only available to the owner."
      },
      "transferOwnership(address)": {
        "details": "Transfers ownership of the contract to a new account (`newOwner`). Can only be called by the current owner."
      }
    },
    "version": 1
  },
  "userdoc": {
    "kind": "user",
    "methods": {},
    "version": 1
  }
}