{
  "contractName": "OGSale",
  "abi": [
    {
      "inputs": [],
      "stateMutability": "nonpayable",
      "type": "constructor"
    },
    {
      "anonymous": false,
      "inputs": [
        {
          "indexed": true,
          "internalType": "address",
          "name": "previousOwner",
          "type": "address"
        },
        {
          "indexed": true,
          "internalType": "address",
          "name": "newOwner",
          "type": "address"
        }
      ],
      "name": "OwnershipTransferred",
      "type": "event"
    },
    {
      "inputs": [
        {
          "internalType": "address",
          "name": "",
          "type": "address"
        }
      ],
      "name": "claimCnts",
      "outputs": [
        {
          "internalType": "uint8",
          "name": "",
          "type": "uint8"
        }
      ],
      "stateMutability": "view",
      "type": "function",
      "constant": true
    },
    {
      "inputs": [],
      "name": "maxSaleCnt",
      "outputs": [
        {
          "internalType": "uint256",
          "name": "",
          "type": "uint256"
        }
      ],
      "stateMutability": "view",
      "type": "function",
      "constant": true
    },
    {
      "inputs": [],
      "name": "nftContract",
      "outputs": [
        {
          "internalType": "contract INordiaForFuture",
          "name": "",
          "type": "address"
        }
      ],
      "stateMutability": "view",
      "type": "function",
      "constant": true
    },
    {
      "inputs": [],
      "name": "owner",
      "outputs": [
        {
          "internalType": "address",
          "name": "",
          "type": "address"
        }
      ],
      "stateMutability": "view",
      "type": "function",
      "constant": true
    },
    {
      "inputs": [],
      "name": "renounceOwnership",
      "outputs": [],
      "stateMutability": "nonpayable",
      "type": "function"
    },
    {
      "inputs": [
        {
          "internalType": "address",
          "name": "newOwner",
          "type": "address"
        }
      ],
      "name": "transferOwnership",
      "outputs": [],
      "stateMutability": "nonpayable",
      "type": "function"
    },
    {
      "stateMutability": "payable",
      "type": "receive",
      "payable": true
    },
    {
      "inputs": [
        {
          "internalType": "address",
          "name": "account",
          "type": "address"
        }
      ],
      "name": "setNFTContract",
      "outputs": [],
      "stateMutability": "nonpayable",
      "type": "function"
    },
    {
      "inputs": [],
      "name": "claimNft",
      "outputs": [],
      "stateMutability": "payable",
      "type": "function",
      "payable": true
    },
    {
      "inputs": [],
      "name": "claim",
      "outputs": [],
      "stateMutability": "nonpayable",
      "type": "function"
    }
  ],
  "bytecode": "0x608060405234801561001057600080fd5b5061001a3361001f565b61006f565b600080546001600160a01b038381166001600160a01b0319831681178455604051919092169283917f8be0079c531659141344cd1fd0a4f28419497f9722a3daafe3b4186f6b6457e09190a35050565b6106268061007e6000396000f3fe60806040526004361061008a5760003560e01c80638da5cb5b116100595780638da5cb5b146100f3578063a7ccabdf14610125578063d56d229d14610145578063ed47ef5014610165578063f2fde38b146101a757600080fd5b8063082b9a97146100965780634e71d92d146100bf5780635ae2afa4146100d6578063715018a6146100de57600080fd5b3661009157005b600080fd5b3480156100a257600080fd5b506100ac6107d081565b6040519081526020015b60405180910390f35b3480156100cb57600080fd5b506100d46101c7565b005b6100d461021c565b3480156100ea57600080fd5b506100d4610418565b3480156100ff57600080fd5b506000546001600160a01b03165b6040516001600160a01b0390911681526020016100b6565b34801561013157600080fd5b506100d4610140366004610579565b61042c565b34801561015157600080fd5b5060015461010d906001600160a01b031681565b34801561017157600080fd5b50610195610180366004610579565b60026020526000908152604090205460ff1681565b60405160ff90911681526020016100b6565b3480156101b357600080fd5b506100d46101c2366004610579565b610456565b6101cf6104cf565b604051600090339047908381818185875af1925050503d8060008114610211576040519150601f19603f3d011682016040523d82523d6000602084013e610216565b606091505b50505050565b600154604080516318160ddd60e01b815290516107d0926001600160a01b0316916318160ddd916004808301926020929190829003018186803b15801561026257600080fd5b505afa158015610276573d6000803e3d6000fd5b505050506040513d601f19601f8201168201806040525081019061029a91906105a9565b106102d95760405162461bcd60e51b815260206004820152600a60248201526914d85b1948195b99195960b21b60448201526064015b60405180910390fd5b3360009081526002602081905260409091205460ff161061033c5760405162461bcd60e51b815260206004820181905260248201527f4f6e6c792032206e66747320617661696c61626c65207065722077616c6c657460448201526064016102d0565b3467010a741a46278000146103845760405162461bcd60e51b815260206004820152600e60248201526d09cdee840cadcdeeaced040cae8d60931b60448201526064016102d0565b336000908152600260205260408120805460ff16916103a2836105c2565b825460ff9182166101009390930a9283029190920219909116179055506001546040516335313c2160e11b81523360048201526001600160a01b0390911690636a62784290602401600060405180830381600087803b15801561040457600080fd5b505af1158015610216573d6000803e3d6000fd5b6104206104cf565b61042a6000610529565b565b6104346104cf565b600180546001600160a01b0319166001600160a01b0392909216919091179055565b61045e6104cf565b6001600160a01b0381166104c35760405162461bcd60e51b815260206004820152602660248201527f4f776e61626c653a206e6577206f776e657220697320746865207a65726f206160448201526564647265737360d01b60648201526084016102d0565b6104cc81610529565b50565b6000546001600160a01b0316331461042a5760405162461bcd60e51b815260206004820181905260248201527f4f776e61626c653a2063616c6c6572206973206e6f7420746865206f776e657260448201526064016102d0565b600080546001600160a01b038381166001600160a01b0319831681178455604051919092169283917f8be0079c531659141344cd1fd0a4f28419497f9722a3daafe3b4186f6b6457e09190a35050565b60006020828403121561058b57600080fd5b81356001600160a01b03811681146105a257600080fd5b9392505050565b6000602082840312156105bb57600080fd5b5051919050565b600060ff821660ff8114156105e757634e487b7160e01b600052601160045260246000fd5b6001019291505056fea2646970667358221220cba823c9fb7ebbdcd9b556a71c0feaa29ea73f753b29497b512f11ebe6f49ce664736f6c63430008070033",
  "immutableReferences": {},
  "source": "// SPDX-License-Identifier: MIT\r\npragma solidity ^0.8.0;\r\n\r\nimport \"@openzeppelin/contracts/utils/Context.sol\";\r\nimport \"@openzeppelin/contracts/access/Ownable.sol\";\r\nimport \"./INordiaForFuture.sol\";\r\n\r\ncontract OGSale is Context, Ownable {\r\n    \r\n    INordiaForFuture public nftContract;    \r\n\r\n    mapping(address => uint8) public claimCnts; \r\n    uint256 public constant maxSaleCnt = 2000;\r\n    constructor() {\r\n\r\n    }\r\n    receive() external payable { }\r\n    function setNFTContract(address account) external onlyOwner {\r\n        nftContract = INordiaForFuture(account);\r\n    }\r\n\r\n    function claimNft() external payable {\r\n        require(nftContract.totalSupply() < 2000, \"Sale ended\");\r\n        require(claimCnts[msg.sender] < 2, \"Only 2 nfts available per wallet\");\r\n        require(msg.value == 0.075 ether, \"Not enough eth\");\r\n        claimCnts[msg.sender] ++;\r\n        nftContract.mint(msg.sender);\r\n    }\r\n\r\n    function claim() external onlyOwner {\r\n        (bool success, ) = payable(msg.sender).call{value: address(this).balance}(\"\");\r\n        success;\r\n    }\r\n\r\n}\r\n",
  "sourcePath": "E:\\Projects\\Solidity\\NordiaForFuture\\contracts\\OGSale.sol",
  "compiler": {
    "name": "solc",
    "version": "0.8.7+commit.e28d00a7.Emscripten.clang"
  },
  "schemaVersion": "3.4.3",
  "updatedAt": "2022-07-12T06:13:15.442Z",
  "networkType": "ethereum",
  "devdoc": {
    "kind": "dev",
    "methods": {
      "owner()": {
        "details": "Returns the address of the current owner."
      },
      "renounceOwnership()": {
        "details": "Leaves the contract without owner. It will not be possible to call `onlyOwner` functions anymore. Can only be called by the current owner. NOTE: Renouncing ownership will leave the contract without an owner, thereby removing any functionality that is only available to the owner."
      },
      "transferOwnership(address)": {
        "details": "Transfers ownership of the contract to a new account (`newOwner`). Can only be called by the current owner."
      }
    },
    "version": 1
  },
  "userdoc": {
    "kind": "user",
    "methods": {},
    "version": 1
  }
}